:1000000002016E8F993099FDC2992202052F753732
:1000100001D290E53DF58CE53EF58AD28CD2AF2237
:10002300020459BB010689828A83E0225002E72237
:10003300BBFE02E32289828A83E49322F8BB010D8B
:10004300E58229F582E5833AF583E8F0225006E953
:100053002582C8F622BBFE05E92582C8F222EF8D70
:10006300F0A4A8F0CF8CF0A428CE8DF0A42EFE220D
:1000730075F008758200EF2FFFEE33FECD33CDCC44
:1000830033CCC58233C5829BED9AEC99E5829840C7
:100093000CF582EE9BFEED9AFDEC99FC0FD5F0D6A4
:1000A300E4CEFBE4CDFAE4CCF9A88222B800C1B9CE
:1000B3000059BA002DEC8BF084CFCECDFCE5F0CB0C
:1000C300F97818EF2FFFEE33FEED33FDEC33FCEB45
:1000D30033FB10D703994004EB99FB0FD8E5E4F900
:1000E300FA227818EF2FFFEE33FEED33FDEC33FCED
:1000F300C933C910D7059BE99A4007EC9BFCE99AE1
:10010300F90FD8E0E4C9FAE4CCFB2275F010EF2F25
:10011300FFEE33FEED33FDCC33CCC833C810D70725
:100123009BEC9AE899400AED9BFDEC9AFCE899F860
:100133000FD5F0DAE4CDFBE4CCFAE4C8F922EC8E77
:10014300F0A4CCC5F0CCCDF8EFA4CEC5F02DFDE4E2
:100153003CFCE8A42EC8C5F03DFDE43CFCEFA4FF45
:10016300E5F028FEE43DFDE43CFC22787FE4F6D88C
:10017300FD75813E0201B502049FE493A3F8E49365
:10018300A34003F68001F208DFF48029E493A3F887
:100193005407240CC8C333C4540F4420C8834004F9
:1001A300F456800146F6DFE4800B010204081020B8
:1001B3004080900568E47E019360BCA3FF543F3008
:1001C300E509541FFEE493A360010ECF54C025E05C
:1001D30060A840B8E493A3FAE493A3F8E493A3C814
:1001E300C582C8CAC583CAF0A3C8C582C8CAC583A5
:1001F300CADFE9DEE780BE74102520F9E4FAFB8B41
:10020300228A238924E4FFEDC394644033ED75F01F
:10021300648424300F90000012003FED75F0648475
:10022300ADF0ED75F00A8424300F90000112003F09
:10023300ED75F00A84ADF0ED24300F900002803AA2
:10024300EDC3940AED402375F00A842430AB22AA4F
:1002530023A924AC070F8C8275830012003FED7530
:10026300F00A84ADF0ED243080082430AB22AA23B9
:10027300A924AD070F8D8275830012003F228D0DD7
:10028300AE03E4F520AD071201FAEF2520F520FFB8
:10029300052074102FF8762CAD0D1201FAEF2520EE
:1002A300F520FF052074102FF8762C74102520F903
:1002B300E4FAFBAD06120202EF2520F520FF05202C
:1002C30074102FF8762C74102520F9E4FAFBAD0F87
:1002D300120202EF2520F520FF052074102FF87677
:1002E3000AE4F521E521C39520500E74102521F869
:1002F300E6FF120003052180EB22C3EF9464EE9422
:100303000050047E007F64D3EF9488EE941340047E
:100313007E137F88C2AFAB07AA06E4F9F8FF7E100D
:100323007D0EFC1200AF8E3B8F3CAD3A7C00120178
:1003330041E47B64FAF9F81200AFC3E53C9FFDE5A5
:100343003B9EFCEF4E7003FE7F01ED4C7003FC7D82
:1003530001C3E49FF53EE49EF53DC3E49DF539E416
:100363009CF538D2AF22AD07E4F50CF50DC2B6C249
:10037300B5FB7E007480A803088006CEA2E713CEE7
:1003830013D8F8FFEDF582EF558224FF92B4D2B66D
:10039300C2B60BBB08DCE4FBD2B6C2B630B7147EE0
:1003A30080E4A803088005CEC313CE13D8F9420D09
:1003B300EE420C0BBB10E1D2B5E50CFF7E00228BA5
:1003C3000E8A0F8910E4F511F512AB0EAA0FA910CE
:1003D300120026FFC39430402EEFD394395028EFF8
:1003E30024D0FBE434FFFAAE11AF127C007D0A1275
:1003F3000061EF2BF512EE3AF51174012510F5109B
:10040300E4350FF50F80C3AE11AF1222EFD394641E
:1004130040027F64C2AF8F3AAC3BAD3C7E00120119
:1004230041E47B64FAF9F81200AFC3E53C9FFDE5B4
:100433003B9EFCEF4E7003FE7F01ED4C7003FC7D91
:1004430001C3E49FF53EE49EF53DC3E49DF539E425
:100453009CF538D2AF22C0E0C0D075D000C000C038
:1004630006C00730982BC298AF99E5267023BF0AC0
:100473000F74272525F87600752601752500801150
:10048300E525C3940F500AAE25052574272EF8A63B
:1004930007D007D006D000D0D0D0E03212054D12DD
:1004A300051112000E7FAC1203698F087FEC120353
:1004B300698F097F9C1203698F0A7FDC1203698F9E
:1004C3000B850B0FAB0AAD09AF08120281E526605D
:1004D300D41204D980CFE527B44617E528B43D12DA
:1004E3007B007A0079291203C28E0C8F0D1202FD54
:1004F3008018E527B44413E528B43D0E7B007A0049
:1005030079291203C28F0C12040FE4F526225389B2
:10051300F0438901D2A9C28CC290E4F537753A320F
:100523007FE87E031202FD7F3202040FC0E03090A9
:100533000CC290E538F58CE539F58A800AD290E54E
:100543003DF58CE53EF58AD0E03275985053877FB0
:1005530053890F438920758DFD758BFDC2ABD28EF8
:0F056300D2ACD2AF2201370001250001260000E3
:00000001FF
